:0C0103001200038E088F0912008780F4A0
:1000EE00EF1FAC0670011E4C600A7D027CEFDCFE39
:0400FE00DDFC80ECB9
:0101020022DA
:100003007590FFC290209403E4FEFF2095047E00C8
:100013007F042096047E007F082097047E007F0CD7
:100023007590FFC2912094047E007F012095047E89
:10003300007F052096047E007F092097047E007FC1
:100043000D7590FFC2922094047E007F02209504D8
:100053007E007F062096047E007F0A2097047E00A0
:100063007F0E7590FFC2932094047E007F0320953A
:10007300047E007F072096047E007F0B2097047E7A
:03008300007F0FEC
:010086002257
:10008700EF4E700375803FEF64014E700375800675
:10009700EF64024E700375805BEF64034E70037567
:1000A700804FEF64044E7003758066EF64054E70F1
:1000B7000375806DEF64064E700375807DEF6407EE
:1000C7004E7003758007EF64084E700375807FEFED
:1000D70064094E700375806FC3EF940AEE648094D1
:0700E70080400375804022F8
:0300000002010FEB
:0C010F00787FE4F6D8FD75810902010339
:00000001FF
